:040000001DC0FECF52
:10000400FDCFFCCFFBCFFACFF9CFF8CFF7CFF6CFA8
:10001400F5CFF4CFF3CFF2CFF1CFF0CFEFCFEECFD8
:10002400EDCFECCFEBCF00000000010002002A006E
:10003400020004002C000000F894EE27ECBBF1E071
:10004400FBBFEBBFE5BF8DE0A2E0BB27ED938A9534
:10005400E9F780E092E0A0E6ED930197E9F7EEE29C
:10006400F0E085919591009761F0A591B591059087
:100074001590BF01F00105900D920197E1F7FB0186
:10008400F0CFEFE5EDBFE2E0EEBFC0EED0E000C0A0
:10009400EFEFEABBE0E0EBBBE7BBE8BBE4BBE5BBEF
:1000A400E1BBE2BBE3BFE2BFECBFEFBDEEBDEDBD24
:1000B400ECBDE7BDE6BDEBBDEABDE9BDE8BDE2BD13
:1000C400E5BDE4BDE3BDE9BFE5BFE4BFEAB9E0E8EF
:1000D400E8B9E0E0E0BFE6B9EDB9E6BFB09902C027
:1000E400E89401C0689421F820FE02C021FE01C0FA
:1000F40009C0E89422F80AD1F20131962F01A8E24E
:10010400B0E064D120FC02C021FC01C005C06894A9
:1001140022F8A8E2B0E05AD122FE14C0A091E00077
:10012400B091E1008091E2009091E300F9D020F4D5
:10013400A0EEB0E0FDD006C0E9D044245524E894F4
:1001440022F8FDD0042C052831F4D898D998DA98EF
:10015400DB98DC98D7C0E1E0F0E0E415F50529F57B
:10016400D89AD998DA9823FC17C0F5D0D9D028F4B6
:10017400A4EEB0E0DDD0DC9A0EC0689423F8E8E980
:10018400FAE360E070E0E093E400F093E50060934C
:10019400E6007093E70008C0DED012D120F4A4EE8C
:1001A400B0E0E2D001C0CBD0ADC0E2E0F0E0E415B5
:1001B400F505A9F5D898D99ADA9824FC1DC0DBD0A6
:1001C400A835EBE1BE07E0E08E07E0E09E0728F4E7
:1001D400A8EEB0E0ADD0DC9A0EC0689424F8E8E54F
:1001E400FBE160E070E0E093E800F093E9006093E5
:1001F400EA007093EB0012C0BED0E2D020F4A8EE67
:10020400B0E0B2D00BC0E89424F8E0E0E093E8005A
:10021400E093E900E093EA00E093EB0073C0E3E0CD
:10022400F0E0E415F505A9F5D89AD99ADA9825FCF1
:100234001DC0AAD0A03AEFE0BE07E0E08E07E0E0E0
:100244009E0728F4ACEEB0E073D0DC9A0EC068943C
:1002540025F8E0EAFFE060E070E0E093EC00F09362
:10026400ED006093EE007093EF0012C08DD0A8D023
:1002740020F4ACEEB0E078D00BC0E89425F8E0E0D0
:10028400E093EC00E093ED00E093EE00E093EF00E8
:1002940039C0E4E0F0E04E165F06A0F1D898D99892
:1002A400DA9A26FC1DC079D0A43FE1E0BE07E0E065
:1002B4008E07E0E09E0728F4A0EFB0E039D0DC9A86
:1002C4000EC0689426F8E4EFF1E060E070E0E0939B
:1002D400F000F093F1006093F2007093F30012C009
:1002E4005CD06ED020F4A0EFB0E03ED00BC0E89418
:1002F40026F8E0E0E093F000E093F100E093F200F0
:10030400E093F30021FA20F8E9CEFFCFE0E0E09398
:10031400E000E093E100E093E200E093E30008955D
:10032400A839EAE3BE07E0E08E07E0E09E070895FF
:100334003DD0EF5FFF4F6F4F7F4F3DD00895E8945E
:1003440023F8E0E0E093E400E093E500E093E600C6
:10035400E093E7000895A091E400B091E500809156
:10036400E6009091E700089521D0319760407040F5
:1003740022D0DC980895A091E800B091E900809122
:10038400EA009091EB000895A091EC00B091ED008B
:100394008091EE009091EF000895A091F000B0914B
:1003A400F1008091F2009091F3000895ED91FD9198
:1003B4006D917D9108957E936E93FE93EE930895CF
:1003C40000240A160B06080609060895109639F04B
:1003D400A8958AEF90E00197F1F71197C9F708956E
:00000001FF
