:0800000019C0FECFFDCFFCCFBB
:10000800FBCFFACFF9CFF8CFF7CFF6CFF5CFF4CFB4
:10001800F3CFF2CFF1CFF0CFEFCFEECFEDCFECCFE4
:10002800EBCF0000010002002A000000F894EE2740
:10003800ECBBF1E0FBBFEBBFE5BF8DE0A2E0BB2767
:10004800ED938A95E9F780E092E0A0E6ED930197B9
:10005800E9F7ECE2F0E085919591009761F0A591C0
:10006800B59105901590BF01F00105900D9201978B
:10007800E1F7FB01F0CFEFE5EDBFE2E0EEBFC0EE48
:10008800D0E000C0E0E0EABBEBBBE7BBE8BBE4BB09
:10009800E5BBEFEFE1BBE0E0E2BBE3BFE2BFECBFF3
:1000A800EFBDEEBDEDBDECBDE7BDE6BDEBBDEABD08
:1000B800E9BDE8BDE2BDE5BDE4BDE3BDE9BFE5BF1F
:1000C800E4BFEAB9E0E8E8B9E0E0E0BFE6B9EDB9D5
:1000D800E6BFB09902C0E89401C0689421F820FEF8
:1000E80002C021FE01C003C0A8E2B0E03FD020FC5E
:1000F80002C021FC01C009C0E091E000E2BBA0EE13
:10010800B0E023D0A8E2B0E031D0A091E400B091F3
:10011800E5008091E6009091E700A839EAE3BE0780
:10012800E0E08E07E0E09E0749F4E0E0E093E400B9
:10013800E093E500E093E600E093E700A4EEB0E08A
:1001480004D021FA20F8C5CFFFCF06D0EF5FFF4FCC
:100158006F4F7F4F06D00895ED91FD916D917D9180
:1001680008957E936E93FE93EE930895109639F05A
:10017800A8958AEF90E00197F1F71197C9F70895CC
:00000001FF
