:0600000019C0FECFFDCF88
:10000600FCCFFBCFFACFF9CFF8CFF7CFF6CFF5CFAE
:10001600F4CFF3CFF2CFF1CFF0CFEFCFEECFEDCFDE
:10002600ECCFEBCF0000020002002A000000F8949B
:10003600EE27ECBBF1E0FBBFEBBFE5BF8DE0A2E036
:10004600BB27ED938A95E9F780E092E0A0E6ED9371
:100056000197E9F7ECE2F0E085919591009761F060
:10006600A591B59105901590BF01F00105900D92EF
:100076000197E1F7FB01F0CFEFE5EDBFE2E0EEBF60
:10008600C0EED0E000C0FF24B4D0EFEFEABBE0E062
:10009600EBBBE7BBE8BBEFEFE4BBE0E0E5BBEFEFB4
:1000A600E1BBE0E0E2BBE3BFE2BFECBFEFBDEEBD0C
:1000B600EDBDECBDE7BDE6BDEBBDEABDE9BDE8BD06
:1000C600E2BDE5BDE4BDE3BDE9BFE5BFE4BFEAB916
:1000D600E0E8E8B9E0E0E0BFE6B9EDB9E6BFB0991F
:1000E60002C0E89401C0689421F820FE02C021FEF7
:1000F60001C05DC07ED00A30E0E01E072CF47CD043
:10010600E0E093D07ED0F7CFA89AE894F0F871D0CB
:10011600F0FC4DC0B59902C0E89401C0689431F86E
:1001260030FE02C031FE01C004C066D0E1E06CD0F2
:100136006DD031FA30F8B69902C0E89401C06894DF
:1001460033F832FE02C033FE01C004C055D0E2E0EF
:100156005BD05CD033FA32F8B49902C0E89401C09F
:10016600689427F826FE02C027FE01C004C044D0CA
:10017600E3E04AD04BD027FA26F8B39902C0E894B8
:1001860001C0689425F824FE02C025FE01C004C003
:1001960033D0E4E039D03AD025FA24F8EAE0F0E0AA
:1001A600E017F10719F46894F0F8A898B1CF21FA8E
:1001B60020F8B19902C0E89401C0689423F822FEA1
:1001C60002C023FE01C011C0A99A13D00A30E0E094
:1001D6001E0744F411D01DD0EBBBA4EFB1E036D01E
:1001E60010D0F4CFE0E0EBBBA99823FA22F877CF42
:1001F600FFCF00E010E00895A0E0B0E0A00FB11F2F
:1002060008950F5F1F4F089510D0FBCFA8E2B0E00E
:100216001DC0E199FECFFF93FFB7F894AEBBBFBBFD
:10022600E09AEDB3FFBFFF910895E19B02C0A89548
:10023600FCCF9FB7F894AEBBBFBBE09A8DB3E8176F
:1002460019F0EDBBE29AE19A9FBF0895109639F036
:10025600A8958EEE92E00197F1F71197C9F70895E8
:00000001FF
