:020000001EC020
:10000200FECFFDCFFCCFFBCFFACFF9CFF8CFF7CFA2
:10001200F6CFF5CFF4CFF3CFF2CFF1CFF0CFEFCFD2
:10002200EECFEDCFECCFEBCF3F065B4F666D7D079A
:100032007F6F00000100020034000000F894EE27F8
:10004200ECBBF1E0FBBFEBBFE5BF8DE0A2E0BB275D
:10005200ED938A95E9F780E092E0A0E6ED930197AF
:10006200E9F7E6E3F0E085919591009761F0A591BB
:10007200B59105901590BF01F00105900D92019781
:10008200E1F7FB01F0CFEFE5EDBFE2E0EEBFC0EE3E
:10009200D0E000C0EFEFEABBE0E0EBBBEFEFE7BB85
:1000A200E0E0E8BBE4BBE5BBE1BBEFEFE2BB80997C
:1000B20002C0E89401C0689421F820FE02C021FE2B
:1000C20001C00DC05394EAE0E51511F455244394A0
:1000D200EAE0E41509F44424A8E2B0E017D020FCD9
:1000E20002C021FC01C003C0A8E2B0E00FD0E52DA0
:1000F20008D008BAE42D05D00BBA21FA20F8D7CFE0
:10010200FFCFF0E0E65DFF4F04900895109639F0BE
:10011200A89580ED97E00197F1F71197C9F7089537
:00000001FF
