:0400000019C0FECF56
:10000400FDCFFCCFFBCFFACFF9CFF8CFF7CFF6CFA8
:10001400F5CFF4CFF3CFF2CFF1CFF0CFEFCFEECFD8
:10002400EDCFECCFEBCF0000010002002A0000006E
:10003400F894EE27ECBBF1E0FBBFEBBFE5BF8DE02E
:10004400A2E0BB27ED938A95E9F780E092E0A0E671
:10005400ED930197E9F7ECE2F0E085919591009733
:1000640061F0A591B59105901590BF01F00105903F
:100074000D920197E1F7FB01F0CFEFE5EDBFE2E070
:10008400EEBFC0EED0E000C0EFEFEABBE0E0EBBBB8
:10009400E7BBE8BBE4BBE5BBE1BBE2BBE3BFE2BF5C
:1000A400ECBFEFBDEEBDEDBDECBDE7BDE6BDEBBD08
:1000B400EABDE9BDE8BDE2BDE5BDE4BDE3BDE9BF20
:1000C400E5BFE4BFEAB9E0E8E8B9E0E0E0BFE6B9DB
:1000D400EDB9E6BFB09902C0E89401C0689421F874
:1000E400B19902C0E89401C0689423F820FE02C0CC
:1000F40021FE01C003C0689425F83DD020FC02C055
:1001040021FC01C002C0E89425F835D022FE02C0CB
:1001140023FE01C003C0689424F82DD022FC02C041
:1001240023FC01C002C0E89424F825D024FE02C0B8
:1001340025FC01C003C0D898D99817C024FC02C07C
:1001440025FE01C003C0D898D9980FC024FC02C072
:1001540025FC01C003C0D89AD99807C024FE02C068
:1001640025FE01C002C0D898D99A21FA20F823FAB2
:1001740022F8B0CFFFCFA8E2B0E000C0109639F06B
:10018400A8958AEF90E00197F1F71197C9F70895C0
:00000001FF
