:0400000023C0FECF4C
:10000400FDCFFCCFFBCFFACFF9CFF8CFF7CFF6CFA8
:10001400F5CFF4CFF3CFF2CFF1CFF0CFEFCFEECFD8
:10002400EDCFECCFEBCF000000000000000000009B
:1000340000000000000000000000000002000200B8
:100044002A000000F894EE27ECBBF1E0FBBFEBBF05
:10005400E5BF8DE0A2E0BB27ED938A95E9F780E048
:1000640092E0A0E6ED930197E9F7E0E4F0E08591F2
:100074009591009761F0A591B59105901590BF01F8
:10008400F00105900D920197E1F7FB01F0CFEFE548
:10009400EDBFE2E0EEBFC0EED0E000C0FF2491D19E
:1000A400EFEFEABBE0E0EBBBE7BBE8BBEFEFE4BBA1
:1000B400E0E0E5BBEFEFE1BBE0E0E2BBE3BFE2BFC2
:1000C400ECBFEFBDEEBDEDBDECBDE7BDE6BDEBBDE8
:1000D400EABDE9BDE8BDE2BDE5BDE4BDE3BDE9BF00
:1000E400E5BFE4BFEAB9E0E8E8B9E0E0E0BFE6B9BB
:1000F400EDB9E6BFB09902C0E89401C0689421F854
:1001040020FE02C021FE01C05CC05BD10A30E0E0E9
:100114001E072CF459D1E0E0CAD15BD1F7CFA89ADD
:10012400E894F0F84ED1F0FC4CC0B59902C0E894C4
:1001340001C0689433F832FE02C033FE01C004C02B
:1001440043D1E1E049D14AD133FA32F8B69902C039
:10015400E89401C0689435F834FE02C035FE01C04D
:1001640004C032D1E2E038D139D135FA34F8B49947
:1001740002C0E89401C0689431F830FE02C031FE38
:1001840001C004C021D1E3E027D128D131FA30F8ED
:10019400B39902C0E89401C0689427F826FE02C00F
:1001A40027FE01C004C010D1E4E016D117D127FA0C
:1001B40026F8EAE0F0E015D119F46894F0F8A8986C
:1001C400B2CF21FA20F8B19902C0E89401C0689432
:1001D40023F822FE02C023FE01C018C0A99AF1D060
:1001E4000A30E0E01E077CF4EFD055D1F0E0DF01E7
:1001F40011D0B29902C0E89401C0689425F825FA98
:1002040024F8E7D0EDCFE0E0EBBBA99823FA22F87D
:1002140071CFFFCFFF92649784E160E070E0ECE27D
:10022400F0E02DD126D18D01FF24AA81BB818C81E0
:100234009D81A031E7E2BE07E0E08E07E0E09E0783
:1002440008F0BBC0E1E0F0E0CCD041F5F0FC16C012
:10025400CBD0A639E0E0BE07E0E08E07E0E09E07E1
:1002640028F4C7D0CBD0CFD0D89A07C06894F0F880
:10027400E6E9F0E060E070E0C6D00FC0B5D028D168
:1002840028F4B7D0C5D0BFD0D89807C0E894F0F808
:10029400E0E0EA8BEB8BEC8BED8B85C0E2E0F0E0E9
:1002A400A0D041F5F1FC16C0B7D0AC33E0E0BE07F6
:1002B400E0E08E07E0E09E0728F4B3D09FD0B6D0EC
:1002C400D89A07C06894F1F8ECE3F0E060E070E0DD
:1002D400ADD00FC0A1D0FCD028F4A3D099D0A6D023
:1002E400D89807C0E894F1F8E0E0EE87EF87E88B50
:1002F400E98B59C0E3E0F0E074D041F5F2FC16C09C
:100304009AD0AF30E0E0BE07E0E08E07E0E09E0761
:1003140028F496D073D099D0D89A07C06894F2F88C
:10032400EFE0F0E060E070E090D00FC084D0D0D077
:1003340028F486D06DD089D0D89807C0E894F2F814
:10034400E0E0EA87EB87EC87ED872DC0E4E0F0E09E
:1003540048D041F5F3FC16C07DD0A130E0E0BE07E3
:10036400E0E08E07E0E09E0728F479D047D07CD007
:10037400D89A07C06894F3F8E1E0F0E060E070E038
:1003840073D00FC067D0A4D028F469D041D06CD00A
:10039400D89807C0E894F3F8E0E0EE83EF83E887A9
:1003A400E98701C0DC98EA81FB816C817D8126D0DC
:1003B400EA83FB836C837D8338CF5ED06696FF909F
:1003C400089500E010E00895A0E0B0E0A00FB11F90
:1003D40008950F5F1F4F08956AD0FBCFA8E2B0E0E5
:1003E4007DC0E017F1070895AA89BB898C899D898E
:1003F4000895EA89FB896C897D890895EF5FFF4F31
:100404006F4F7F4F0895EA8BFB8B6C8B7D8B089528
:100414003197604070400895AE85BF858889998979
:100424000895EE85FF85688979890895EE87FF87A9
:10043400688B798B0895AA85BB858C859D850895E5
:10044400EA85FB856C857D850895EA87FB876C8743
:100454007D870895AE81BF81888599850895EE8151
:10046400FF81688579850895EE83FF83688779879E
:1004740008951A930A930895198108810895AF93F2
:10048400BF93DB01AC0FBD1F05900D928A95E1F778
:10049400BF91AF910895E199FECFFF93FFB7F89410
:1004A400AEBBBFBBE09AEDB3FFBFFF910895E19BE4
:1004B40002C0A895FCCF9FB7F894AEBBBFBBE09A2F
:1004C4008DB3E81719F0EDBBE29AE19A9FBF089546
:1004D40000240A160B06080609060895109639F03A
:1004E400A8958EEE92E00197F1F71197C9F7089558
:00000001FF
