:1000000019C0FECFFDCFFCCFFBCFFACFF9CFF8CF91
:10001000F7CFF6CFF5CFF4CFF3CFF2CFF1CFF0CFCC
:10002000EFCFEECFEDCFECCFEBCF00000100020021
:100030002A000000F894EE27ECBBF1E0FBBFEBBF19
:10004000E5BF8DE0A2E0BB27ED938A95E9F780E05C
:1000500092E0A0E6ED930197E9F7ECE2F0E08591FC
:100060009591009761F0A591B59105901590BF010C
:10007000F00105900D920197E1F7FB01F0CFEFE55C
:10008000EDBFE2E0EEBFC0EED0E000C0EFEFEABBB4
:10009000E0E0EBBBE7BBE8BBEFEFE4BBE0E0E5BBD8
:1000A000E1BBE2BBE3BFE2BFECBFEFBDEEBDEDBD28
:1000B000ECBDE7BDE6BDEBBDEABDE9BDE8BDE5BD14
:1000C000E4BDE3BDE9BFE5BFE4BFEAB9E0E8E8B9F4
:1000D000E0E0E0BFE6B9EDB9E6BFE0E0E093E400C0
:1000E000E093E500E093E600E093E700A091E400F0
:1000F000B091E5008091E6009091E700A838E3E137
:10010000BE07E0E08E07E0E09E07A0F4B09902C0D1
:10011000E89401C0689421F820FC02C021FC01C0D1
:1001200003C0A0EEB0E038D021FA20F8A4EEB0E091
:1001300033D0DCCFE091E000E5BB35D03DD010F00E
:10014000E2E01EC041D018F02ED036D008F002C038
:10015000E1E016C042D010F037D008F002C0E8E06D
:100160000FC021D0A130E0E0BE07E0E08E07E0E064
:100170009E0710F032D008F002C0E4E001C0E0E0D9
:10018000EBBBE0E0E093E000E093E100E093E2000D
:10019000E093E300A2CFFFCF29D0EF5FFF4F6F4F77
:1001A0007F4F29D00895A091E000B091E1008091A7
:1001B000E2009091E3000895A539E0E0BE07E0E099
:1001C0008E07E0E09E070895EEDFAC33E0E0BE0767
:1001D000E0E08E07E0E09E070895E5DFA031E0E073
:1001E000BE07E0E08E07E0E09E070895ED91FD91E7
:1001F0006D917D9108957E936E93FE93EE93089595
:00000001FF
