:1000000019C0FECFFDCFFCCFFBCFFACFF9CFF8CF91
:10001000F7CFF6CFF5CFF4CFF3CFF2CFF1CFF0CFCC
:10002000EFCFEECFEDCFECCFEBCF00000200020020
:100030002A000000F894EE27ECBBF1E0FBBFEBBF19
:10004000E5BF8DE0A2E0BB27ED938A95E9F780E05C
:1000500092E0A0E6ED930197E9F7ECE2F0E08591FC
:100060009591009761F0A591B59105901590BF010C
:10007000F00105900D920197E1F7FB01F0CFEFE55C
:10008000EDBFE2E0EEBFC0EED0E000C0EFEFEABBB4
:10009000E0E0EBBBE7BBE8BBE4BBE5BBE1BBE2BB3D
:1000A000E3BFE2BFECBFEFBDEEBDEDBDECBDE7BD14
:1000B000E6BDEBBDEABDE9BDE8BDE2BDE5BDE4BD21
:1000C000E3BDE9BFE5BFE4BFEAB9E0E8E8B9E0E0D5
:1000D000E0BFE6B9EDB9E6BFB09902C0E89401C04F
:1000E000689421F8B19902C0E89401C0689423F89B
:1000F000B29902C0E89401C0689425F8B39902C08F
:10010000E89401C0689427F820FC02C021FC01C0DB
:1001100002C0E89408D120FE02C021FE01C002C046
:10012000689401D122FC02C023FC01C002C0E89403
:10013000FED022FE02C023FE01C002C06894F7D0A8
:1001400024FC02C025FC01C002C0E894F4D024FEC7
:1001500002C025FE01C002C06894EDD026FC02C09A
:1001600027FC01C002C0E894EAD026FE02C027FEA8
:1001700001C002C06894E3D030FE31C034FC1CC022
:10018000E2D0A639E0E0BE07E0E08E07E0E09E079F
:1001900020F4A0EEB0E0E0D00EC0689434F8E6E9B8
:1001A000F0E060E070E0E093E000F093E100609345
:1001B000E2007093E30012C0C6D002D120F4A0EE9A
:1001C000B0E0D2D00BC0E89434F8E0E0E093E00077
:1001D000E093E100E093E200E093E3009AC031FE97
:1001E00031C035FC1CC0C7D0AC33E0E0BE07E0E056
:1001F0008E07E0E09E0720F4A4EEB0E0ADD00EC084
:10020000689435F8ECE3F0E060E070E0E093E4003F
:10021000F093E5006093E6007093E70012C0ABD066
:10022000CFD020F4A4EEB0E09FD00BC0E89435F816
:10023000E0E0E093E400E093E500E093E600E09383
:10024000E70067C032FE31C036FC1CC09DD0AF3025
:10025000E0E0BE07E0E08E07E0E09E0720F4A8EEB5
:10026000B0E07AD00EC0689436F8EFE0F0E060E0DD
:1002700070E0E093E800F093E9006093EA00709387
:10028000EB0012C081D09CD020F4A8EEB0E06CD07E
:100290000BC0E89436F8E0E0E093E800E093E90072
:1002A000E093EA00E093EB0034C033FE31C037FC4A
:1002B0001CC073D0A130E0E0BE07E0E08E07E0E0B4
:1002C0009E0720F4ACEEB0E047D00EC0689437F83B
:1002D000E1E0F0E060E070E0E093EC00F093ED002E
:1002E0006093EE007093EF0012C057D069D020F4F5
:1002F000ACEEB0E039D00BC0E89437F8E0E0E09322
:10030000EC00E093ED00E093EE00E093EF0001C01D
:10031000DC9821FA20F823FA22F825FA24F827FAA3
:1003200026F8DACEFFCF30F8A8E2B0E04FC031F8BF
:10033000A8E2B0E04BC032F8A8E2B0E047C033F822
:10034000A8E2B0E043C0A091E000B091E10080914C
:10035000E2009091E300089529D0EF5FFF4F6F4FC7
:100360007F4F29D0D89A089521D0319760407040AE
:1003700022D0D8980895A091E400B091E500809132
:10038000E6009091E7000895A091E800B091E9009F
:100390008091EA009091EB000895A091EC00B0915B
:1003A000ED008091EE009091EF000895ED91FD91A8
:1003B0006D917D9108957E936E93FE93EE930895D3
:1003C00000240A160B06080609060895109639F04F
:1003D000A8958AEF90E00197F1F71197C9F7089572
:00000001FF
