:0800000042C0FECFFDCFFCCF92
:10000800FBCFFACFF9CFF8CFF7CFF6CFF5CFF4CFB4
:10001800F3CFF2CFF1CFF0CFEFCFEECFEDCFECCFE4
:10002800EBCF00000000020002000000C0FFF9FF53
:10003800A4FFB0FF99FF92FF83FFF8FF80FF90FFB6
:100048000100020010000800010040000A0004003E
:100058002A001400E00034000100F6004800010006
:10006800F8004A000100FA004C000100FC004E00B4
:100078000100FE0050000100000152000000F89449
:10008800EE27ECBBF1E0FBBFEBBFE5BF8DE0A2E0E4
:10009800BB27ED938A95E9F780E092E0A0E6ED931F
:1000A8000197E9F7E4E5F0E085919591009761F013
:1000B800A591B59105901590BF01F00105900D929D
:1000C8000197E1F7FB01F0CFEFE5EDBFE2E0EEBF0E
:1000D800C0EED0E000C0EFEFEABBE0E0EBBBE7BB6F
:1000E800EFEFE8BBE4BBE0E0E5BBEFEFE1BBE0E04E
:1000F800E2BBE3BFE2BFECBFEFBDEEBDEDBDECBDC3
:10010800E7BDE6BDEBBDEABDE9BDE8BDE2BDE5BDC5
:10011800E4BDE3BDE9BFE5BFE4BFEAB9E0E8E8B99B
:10012800E0E0E0BFE6B9EDB9E6BF57D176D09ED0A2
:10013800F0D0C6D0E82D5ED1A5BA5FD1E091F60027
:100148005FD15BD1E091F8005BD157D1E091FA0023
:100158005BD153D1E091FC0057D14FD1A2E0B1E07F
:10016800ED91FD913196FE93EE93A0910201B0912D
:100178000301549741F409D026D0E0E0E09302014E
:10018800E0930301F2D0D1CFFFCF0C2C0D2851F40E
:10019800E0E2F0E08E169F061CF4880C991C02C061
:1001A80037D16F0135D1EC15FD0561F434D1E8156F
:1001B800F90524F4D40132D14F0104C0CC24DD2444
:1001C800880C991C0895E091F400F091F50030979F
:1001D80081F4E0E1F0E0AE16BF061CF4AA0CBB1CEB
:1001E80008C016D1E093F400F093F500D50116D1BC
:1001F8005F010ED1EC15FD0579F40AD1EA15FB056E
:1002080024F4D5010BD15F0107C0E0E0E093F400CE
:10021800E093F500AA0CBB1C0895B09906C0E0E075
:10022800E0930401E093050105C0F2D0E0930401D6
:10023800F0930501A0910401B0910501109731F4E4
:10024800A0910601B0910701119709F006C0E9D005
:1002580018971CF4EBD0F1D0F5D0E0910401F0919F
:100268000501E0930601F09307010895B19906C0CE
:10027800E0E0E0930801E093090105C0C9D0E093EC
:100288000801F0930901A0910801B09109011097A4
:1002980031F4A0910A01B0910B01119709F007C040
:1002A800C0D0129724F0BDD0B9D0C7D0CBD0E09140
:1002B8000801F0910901E0930A01F0930B010895F8
:1002C800B29906C0E0E0E0931001E093110105C087
:1002D8009FD0E0931001F0931101A0911001B0910B
:1002E8001101109731F4A0911201B09113011197E7
:1002F80009F006C0ACD012971CF0A9D08FD0ACD0B2
:10030800E0911001F0911101E0931201F0931301B3
:100318000895B39906C0E0E0E0930C01E0930D0165
:1003280005C076D0E0930C01F0930D01A0910C016B
:10033800B0910D01109731F4A0910E01B0910F0109
:10034800119709F009C083D0189734F4E091FA00A6
:10035800F091FB008CD080D0E0910C01F0910D0160
:10036800E0930E01F0930F010895E0E2F0E0E81544
:10037800F905B9F46CD07ED031F0A091FC00B091B1
:10038800FD0078D009F40DC0A4E677D0F2013196CB
:100398002F01E5E0F0E0E415F50519F470D07BD005
:1003A80086D039D0E815F905B9F43BD063D031F0DF
:1003B800A091F800B091F9005DD009F40DC0A4E651
:1003C8005CD0F30131963F01E5E0F0E0E615F70572
:1003D80019F455D060D06BD00895B49B05C0F201D4
:1003E8006BD0AD9AAE9804C0F30166D0AD98AE9AC2
:1003F80004D00895E095E2BB0895A5E0B0E08EC072
:10040800E5BBE091FE00F6CFE5BBE0910001F2CF3D
:10041800E1E0F0E00895E2E0F0E00895FCDF6BD061
:100428000895A091F600B091F7000895E091F600C4
:10043800F091F700EE0FFF1F0895E093F600F09398
:10044800F700F4CFE093F800F093F9000895A09135
:10045800FA00B091FB000895E093FA00F093FB00D6
:10046800EE0FFF1FE093FC00F093FD000895EE0FE0
:10047800FF1F0895AA16BB060895B0E04FC0F20109
:10048800A0EEB0E0F4DFAE0FBF1FEC91EBBBAD9A6E
:10049800AE98A8ECF2CFF301A0EEB0E0E8DFAE0F23
:1004A800BF1FEC91EBBBAD98AE9AA8ECE6CF442405
:1004B8005524662477240895A0EEB0E0D8DFAE0F67
:1004C800BF1FEC91EBBB0895F195E195F0400895BD
:1004D8000024112490E1AA0FBB1F001C111C0E1A46
:1004E8001F0A18F40E0E1F1E01C0A1609A9599F7F5
:1004F800FD01D001089504D0EBDF0EF4E5DF089587
:10050800E894F7FF02C0E0DF6894B7FF06C0B19532
:10051800A195B04000F8039400FA0895109639F0B8
:10052800A8958AEF90E00197F1F71197C9F7089518
:00000001FF
