:0800000050C0FECFFDCFFCCF84
:10000800FBCFFACFF9CFF8CFF7CFF6CFF5CFF4CFB4
:10001800F3CFF2CFF1CFF0CFEFCFEECFEDCFECCFE4
:10002800EBCF1027E80364000A000100001000016C
:1000380010000100000000000200020000000100A2
:1000480002001000080001004000506C61796572E0
:1000580020313A2020256400506C61796572203285
:100068003A202025640080C00A0004003C000100FA
:10007800E20046000100E40048000100E6004A00F2
:100088000100E8004C000100EA004E000100EC000D
:100098005000020000016E000000F894EE27ECBB4F
:1000A800F1E0FBBFEBBFE5BF8DE0A2E0BB27ED931E
:1000B8008A95E9F780E092E0A0E6ED930197E9F7E9
:1000C800E0E7F0E085919591009761F0A591B591F1
:1000D80005901590BF01F00105900D920197E1F789
:1000E800FB01F0CFEFE5EDBFE2E0EEBFC0EED0E000
:1000F80000C0EFEFEABBE0E0EBBBE7BBEFEFE8BB2C
:10010800E4BBE0E0E5BBEFEFE1BBE0E0E2BBE3BF6F
:10011800E2BFECBFEFBDEEBDEDBDECBDE7BDE6BD9A
:10012800EBBDEABDE9BDE8BDE2BDE5BDE4BDE3BDAB
:10013800E9BFE5BFE4BFEAB9E0E8E8B9E0E0E0BF5D
:10014800E6B9EDB9E6BFACE0CCD153D175D09DD0BE
:10015800EFD0C5D0E82D52D3A5BA53D3E091E20031
:1001680053D34FD3E091E4004FD34BD3E091E60053
:100178004FD347D3E091E8004BD343D3AEEEB0E082
:100188004BD33196FE93EE93A091EE00B091EF0021
:10019800549741F409D026D0E0E0E093EE00E093D4
:1001A800EF00F3D0D2CFFFCF0C2C0D2851F4E0E2B2
:1001B800F0E08E169F061CF4880C991C02C02FD301
:1001C8006F012DD3EC15FD0561F42CD3E815F90565
:1001D80024F4D4012AD34F0104C0CC24DD24880C94
:1001E800991C0895E091E000F091E100309781F4C6
:1001F800E0E1F0E0AE16BF061CF4AA0CBB1C08C078
:100208000ED3E093E000F093E100D5010ED35F0137
:1002180006D3EC15FD0579F402D3EA15FB0524F4A1
:10022800D50103D35F0107C0E0E0E093E000E0936D
:10023800E100AA0CBB1C0895B09906C0E0E0E09369
:10024800F000E093F10005C0EAD2E093F000F093EB
:10025800F100A091F000B091F100109731F4A09155
:10026800F200B091F300119709F006C0E1D2189797
:100278001CF4E3D2E9D2EDD2E091F000F091F10064
:10028800E093F200F093F3000895B19906C0E0E01E
:10029800E093F400E093F50005C0C1D2E093F400C8
:1002A800F093F500A091F400B091F500109731F4A7
:1002B800A091F600B091F700119709F007C0B8D2E5
:1002C800129724F0B5D2B1D2BFD2C3D2E091F400D4
:1002D800F091F500E093F600F093F7000895B299D5
:1002E80006C0E0E0E093FC00E093FD0005C097D273
:1002F800E093FC00F093FD00A091FC00B091FD009C
:10030800109731F4A091FE00B091FF00119709F009
:1003180006C0A4D212971CF0A1D287D2A4D2E09131
:10032800FC00F091FD00E093FE00F093FF000895BB
:10033800B39906C0E0E0E093F800E093F90005C047
:100348006ED2E093F800F093F900A091F800B09114
:10035800F900109731F4A091FA00B091FB001197C1
:1003680009F00AC07BD218973CF4E091E600F091BE
:10037800E700EE0FFF1F77D2E091F800F091F90047
:10038800E093FA00F093FB000895E0E2F0E0E8154E
:10039800F905A9F463D272D231F0A091E800B091C6
:1003A800E9006CD209F40BC0A4E66BD2F2013196D5
:1003B8002F01E5E0F0E0E415F50509F464D232D246
:1003C800E815F905A9F434D259D231F0A091E40026
:1003D800B091E50053D209F40BC0A4E652D2F30160
:1003E80031963F01E5E0F0E0E615F70509F44BD258
:1003F8000895E0E0EA93A0E034D0E2E5F0E048D2E6
:10040800F20149D2E0E6F0E043D2F30144D2089584
:100418001A931A2F14FF02C0DB9A01C0DB9815FF4C
:1004280002C0DC9A01C0DC9816FF02C0DD9A01C048
:10043800DD9817FF02C0DE9A01C0DE9832D2DA9A40
:1004480030D2DA982ED276C0AA93A881E1DFE8816B
:10045800E295E883A881DCDF81E18A95F1F72196AE
:10046800089552D21A2F0A81E12FF0E0E050FF4F91
:10047800E081E00FAE2FE8DF00930401109305013F
:100488004AD223960895A2E0DFDFA3E0FAD1ACE0D8
:10049800DBDFA1E0D9DFA3E0F4D1E0E0E0930501E0
:1004A800E093040108951A931A2F1A3031F0E0915D
:1004B8000601A0910401AE1750F0E0E0EA93A09184
:1004C8000501AF5FA0930501CCDF1A3099F1E091E7
:1004D8000401EF5FE0930401D89AA12FB5DFD89803
:1004E80029C01A931A2FD39AD49AD59AD69AD29AFF
:1004F800D09AD19ADA98D898D99810930601E12F12
:10050800E058E0930201E12FE054E0930301A4E1F5
:10051800B8D1CBD1CAD1C9D1A0E27ADF81E28A951C
:10052800F1F7A8E291DFA4E08FDFA5E88DDFA6E070
:100538008BDFA9DF19910895BA93AA932697E0D182
:1005480010E0AC85BD85E0E0F0E0ED93FC93EA892E
:10055800FB893196EA8BFB8B3197E4912E2FE030A3
:1005680009F402C1E12FE03031F4253211F411E031
:1005780001C0A1D1F8C0E130A1F4253211F49BD11A
:10058800F1C012E040E000E02D3211F401E0EBC0D0
:100598002B3211F44BE2E7C0203211F440E2E3C001
:1005A80002C0E23039F450E013E0203311F400685F
:1005B800DAC003C0E33009F0D6C0203310F02A3384
:1005C80008F007C0AAE05A9F502DE22FE0535E0FB3
:1005D800CAC0E22FE33639F475D177D173D1A4813B
:1005E800AA9377D1BFC0E33729F479D17AD1EDD076
:1005F8001E2F07C0E03749F472D173D1F2D01E2FF5
:10060800086002600F7730E034C0E43611F0E93654
:1006180011F4046002C0E53729F4EAE2F0E06AD197
:1006280015E00BC0E83511F4086003C0E83709F09D
:1006380099C0E4E3F0E05ED114E002FF14C04FD1AA
:10064800A889B9891496E8D058D1AB85AA232AF489
:10065800EA85FB8567D151D14DE2403011F01F5F2B
:1006680001C00B7F06C03BD1A889B989149689D1EE
:1006780044D100FD10C0151770F407FF08C002FF31
:1006880004C00B7F242F115001C020E301C020E2D9
:1006980012D15150F0CF312F01FF15C0303091F0F9
:1006A80003FF05C0EE81FF81259124D105C0AE81ED
:1006B800BF812D91AE83BF83FED0503009F05150D9
:1006C8003150ECCF46C020E3EE81FF815ED1E88750
:1006D800F987EE81FF8132960DD1E885F985AA85E3
:1006E800BB85AE17BF0748F02F5FA885B985EA8597
:1006F800FB85EA1BFB0B01D1F0CF2A3328F003FF5F
:1007080002C0295F01C0295D04FD19C0213320F40E
:10071800A885B985119709F409C0531710F000FF8F
:1007280001C011C020E207FF0AC020E3006102FFF8
:1007380006C00B7F4A93CDD0503009F05150BBD042
:10074800503009F051503150A885B985129708F0FA
:10075800BACF00FF07C0503029F05150E0E2EA93C9
:10076800B8D0F9CF10E0F3CEAC85BD8555D0CFD049
:1007780064960895C7D08D013C81A32F94DED801DB
:100788004BD03196FE93EE93C4D025960895FF92F0
:10079800F82E2697B9D0DE011496C0D08D01E0E07E
:1007A800EC83ED83EE83EF83DE011896B7D034D067
:1007B8006FD01A930A93EEEBF3E06AD0DE01189635
:1007C800BBDEA9D02896FF900895BA93AA93A99161
:1007D800B991EE27FF276D91662311F03196FBCF73
:1007E8000895BA93AA93AA27BB27E991F99105908E
:1007F800002011F01196FBCFFD010895E095E2BBB2
:100808000895A5E0B0E0CAC0E5BBE091EA00F6CFE4
:10081800E5BBE091EC00F2CFED91FD910895E1E0A8
:10082800F0E00895E2E0F0E00895FCDF97D0089545
:10083800A091E200B091E3000895E091E200F09108
:10084800E300EE0FFF1F0895E093E200F093E3004A
:10085800F4CFE093E400F093E5000895A091E6005A
:10086800B091E7000895E093E600F093E700EE0FFB
:10087800FF1FE093E800F093E9000895AA16BB066D
:100888000895B0E08BC04424552466247724089545
:10089800FA93EA9308954AD07CD084E078DF2696CC
:1008A800089582E08A95F1F70895A0E3B1DD81E229
:1008B8008A95F1F708952A93AD85BE85EF85F88965
:1008C80009950895E889F98908953497E88BF98B93
:1008D8000895AD85BE85EF85F88909950895F2DFFD
:1008E800F4CFA889B989149697DFEE83FF83AE8188
:1008F800BF810895EE83FF830895EA87FB870895F3
:100908005A934A933A932A931A930A9308955D81C6
:100918004C813B812A811981088108950024AF0DFB
:10092800B01D0895F195E195F04008956F2F660F79
:10093800660B762F08950024112490E1AA0FBB1F9F
:10094800001C111C0E1A1F0A18F40E0E1F1E01C0DF
:10095800A1609A9599F7FD01D001089504D0EBDFC5
:100968000EF4E0DF0895E894F7FF02C0DBDF689437
:10097800B7FF06C0B195A195B04000F8039400FAFE
:100988000895ED91FC91119708950590F491E02D4B
:1009980008957A936A93FA93EA930895109639F032
:1009A800A8958AEF90E00197F1F71197C9F7089594
:00000001FF
